:100000000C942A000C9447000C9447000C94470071
:100010000C9447000C9447000C9447000C94470044
:100020000C9447000C9447000C9447000C94470034
:100030000C9447000C9447000C9447000C94470024
:100040000C9447000C9447000C9447000C94470014
:100050000C94470011241FBECFE5D4E0DEBFCDBF16
:1000600010E0A0E6B0E0E6EEF2E002C005900D92EE
:10007000A836B107D9F710E0A8E6B0E001C01D929C
:10008000AC36B107E1F70E94A8000C9471010C9402
:100090000000282F207F22BB929A40EA5FE0FA01FD
:1000A0003197F1F722B3207F22BBFA013197F1F7A4
:1000B00090E024E0880F991F2A95E1F782BB929A7D
:1000C000CA010197F1F782B3807F82BBCA01019711
:1000D000F1F70895282F207F22BB22B3256022BB91
:1000E00040EA5FE0FA013197F1F722B3217F22BBAA
:1000F000FA013197F1F790E034E0880F991F3A95B3
:10010000E1F782BB82B3856082BBCA010197F1F738
:1001100082B3817F82BBCA010197F1F7089582E023
:100120000E94490088E20E9449008CE00E94490038
:1001300086E00E9449000895CF93DF93EC0102C04E
:100140000E946A0089918823D9F7DF91CF910895A1
:10015000CF92DF92EF92FF920F931F93CF93DF9393
:100160008EE78ABB8FEF81BB0E948F0000916A00EF
:1001700010916B00C0916800D0916900219640E910
:10018000E42E41E0F42E01C021966E010894C108CE
:10019000D10880E80E94490080E690E00E949C001F
:1001A0008DE80E94490083E690E00E949C0089B39C
:1001B0008130A1F50F5F1F4FC899FECF0A3011059E
:1001C0007CF481EC0E944900802F805D0E946A00CF
:1001D00080ED97E0F7013197F1F70197D9F71EC04D
:1001E00081EC0E944900C8016AE070E00E944A0167
:1001F000862F805D0E946A0082EC0E944900C8013F
:100200006AE070E00E944A01805D0E946A0080ED11
:1002100097E0F7013197F1F70197D9F789B3803863
:1002200009F0B7CFC016D1060CF0B3CFCF99FECFEF
:10023000CA30D10584F48DEC0E9449009E01205DF6
:10024000822F0E946A0080ED97E0F7013197F1F765
:100250000197D9F799CF8DEC0E944900CE016AE051
:1002600070E00E944A01862F805D0E946A008EEC39
:100270000E944900CE016AE070E00E944A01805D60
:100280000E946A0080ED97E0F7013197F1F701973E
:10029000D9F77ACF97FB092E07260AD077FD04D02D
:1002A0000CD006D000201AF4709561957F4F089508
:1002B000F6F7909581959F4F0895AA1BBB1B51E1BE
:1002C00007C0AA1FBB1FA617B70710F0A61BB70BC6
:1002D000881F991F5A95A9F780959095BC01CD016B
:0602E0000895F894FFCF21
:0802E600494E004F5554000081
:00000001FF
